{
  "contractName": "GiftCertificate",
  "abi": [
    {
      "constant": true,
      "inputs": [
        {
          "name": "interfaceId",
          "type": "bytes4"
        }
      ],
      "name": "supportsInterface",
      "outputs": [
        {
          "name": "",
          "type": "bool"
        }
      ],
      "payable": false,
      "stateMutability": "view",
      "type": "function"
    },
    {
      "constant": true,
      "inputs": [],
      "name": "name",
      "outputs": [
        {
          "name": "",
          "type": "string"
        }
      ],
      "payable": false,
      "stateMutability": "view",
      "type": "function"
    },
    {
      "constant": true,
      "inputs": [
        {
          "name": "tokenId",
          "type": "uint256"
        }
      ],
      "name": "getApproved",
      "outputs": [
        {
          "name": "",
          "type": "address"
        }
      ],
      "payable": false,
      "stateMutability": "view",
      "type": "function"
    },
    {
      "constant": false,
      "inputs": [
        {
          "name": "to",
          "type": "address"
        },
        {
          "name": "tokenId",
          "type": "uint256"
        }
      ],
      "name": "approve",
      "outputs": [],
      "payable": false,
      "stateMutability": "nonpayable",
      "type": "function"
    },
    {
      "constant": true,
      "inputs": [],
      "name": "totalSupply",
      "outputs": [
        {
          "name": "",
          "type": "uint256"
        }
      ],
      "payable": false,
      "stateMutability": "view",
      "type": "function"
    },
    {
      "constant": false,
      "inputs": [
        {
          "name": "from",
          "type": "address"
        },
        {
          "name": "to",
          "type": "address"
        },
        {
          "name": "tokenId",
          "type": "uint256"
        }
      ],
      "name": "transferFrom",
      "outputs": [],
      "payable": false,
      "stateMutability": "nonpayable",
      "type": "function"
    },
    {
      "constant": true,
      "inputs": [
        {
          "name": "owner",
          "type": "address"
        },
        {
          "name": "index",
          "type": "uint256"
        }
      ],
      "name": "tokenOfOwnerByIndex",
      "outputs": [
        {
          "name": "",
          "type": "uint256"
        }
      ],
      "payable": false,
      "stateMutability": "view",
      "type": "function"
    },
    {
      "constant": false,
      "inputs": [],
      "name": "unpause",
      "outputs": [],
      "payable": false,
      "stateMutability": "nonpayable",
      "type": "function"
    },
    {
      "constant": false,
      "inputs": [
        {
          "name": "from",
          "type": "address"
        },
        {
          "name": "to",
          "type": "address"
        },
        {
          "name": "tokenId",
          "type": "uint256"
        }
      ],
      "name": "safeTransferFrom",
      "outputs": [],
      "payable": false,
      "stateMutability": "nonpayable",
      "type": "function"
    },
    {
      "constant": true,
      "inputs": [
        {
          "name": "account",
          "type": "address"
        }
      ],
      "name": "isPauser",
      "outputs": [
        {
          "name": "",
          "type": "bool"
        }
      ],
      "payable": false,
      "stateMutability": "view",
      "type": "function"
    },
    {
      "constant": true,
      "inputs": [
        {
          "name": "index",
          "type": "uint256"
        }
      ],
      "name": "tokenByIndex",
      "outputs": [
        {
          "name": "",
          "type": "uint256"
        }
      ],
      "payable": false,
      "stateMutability": "view",
      "type": "function"
    },
    {
      "constant": true,
      "inputs": [],
      "name": "paused",
      "outputs": [
        {
          "name": "",
          "type": "bool"
        }
      ],
      "payable": false,
      "stateMutability": "view",
      "type": "function"
    },
    {
      "constant": true,
      "inputs": [
        {
          "name": "tokenId",
          "type": "uint256"
        }
      ],
      "name": "ownerOf",
      "outputs": [
        {
          "name": "",
          "type": "address"
        }
      ],
      "payable": false,
      "stateMutability": "view",
      "type": "function"
    },
    {
      "constant": false,
      "inputs": [],
      "name": "renouncePauser",
      "outputs": [],
      "payable": false,
      "stateMutability": "nonpayable",
      "type": "function"
    },
    {
      "constant": true,
      "inputs": [
        {
          "name": "owner",
          "type": "address"
        }
      ],
      "name": "balanceOf",
      "outputs": [
        {
          "name": "",
          "type": "uint256"
        }
      ],
      "payable": false,
      "stateMutability": "view",
      "type": "function"
    },
    {
      "constant": false,
      "inputs": [],
      "name": "renounceOwnership",
      "outputs": [],
      "payable": false,
      "stateMutability": "nonpayable",
      "type": "function"
    },
    {
      "constant": false,
      "inputs": [
        {
          "name": "account",
          "type": "address"
        }
      ],
      "name": "addPauser",
      "outputs": [],
      "payable": false,
      "stateMutability": "nonpayable",
      "type": "function"
    },
    {
      "constant": false,
      "inputs": [],
      "name": "pause",
      "outputs": [],
      "payable": false,
      "stateMutability": "nonpayable",
      "type": "function"
    },
    {
      "constant": true,
      "inputs": [],
      "name": "owner",
      "outputs": [
        {
          "name": "",
          "type": "address"
        }
      ],
      "payable": false,
      "stateMutability": "view",
      "type": "function"
    },
    {
      "constant": true,
      "inputs": [],
      "name": "isOwner",
      "outputs": [
        {
          "name": "",
          "type": "bool"
        }
      ],
      "payable": false,
      "stateMutability": "view",
      "type": "function"
    },
    {
      "constant": true,
      "inputs": [],
      "name": "symbol",
      "outputs": [
        {
          "name": "",
          "type": "string"
        }
      ],
      "payable": false,
      "stateMutability": "view",
      "type": "function"
    },
    {
      "constant": false,
      "inputs": [
        {
          "name": "to",
          "type": "address"
        },
        {
          "name": "approved",
          "type": "bool"
        }
      ],
      "name": "setApprovalForAll",
      "outputs": [],
      "payable": false,
      "stateMutability": "nonpayable",
      "type": "function"
    },
    {
      "constant": false,
      "inputs": [
        {
          "name": "from",
          "type": "address"
        },
        {
          "name": "to",
          "type": "address"
        },
        {
          "name": "tokenId",
          "type": "uint256"
        },
        {
          "name": "_data",
          "type": "bytes"
        }
      ],
      "name": "safeTransferFrom",
      "outputs": [],
      "payable": false,
      "stateMutability": "nonpayable",
      "type": "function"
    },
    {
      "constant": true,
      "inputs": [
        {
          "name": "tokenId",
          "type": "uint256"
        }
      ],
      "name": "tokenURI",
      "outputs": [
        {
          "name": "",
          "type": "string"
        }
      ],
      "payable": false,
      "stateMutability": "view",
      "type": "function"
    },
    {
      "constant": true,
      "inputs": [
        {
          "name": "owner",
          "type": "address"
        },
        {
          "name": "operator",
          "type": "address"
        }
      ],
      "name": "isApprovedForAll",
      "outputs": [
        {
          "name": "",
          "type": "bool"
        }
      ],
      "payable": false,
      "stateMutability": "view",
      "type": "function"
    },
    {
      "constant": false,
      "inputs": [
        {
          "name": "newOwner",
          "type": "address"
        }
      ],
      "name": "transferOwnership",
      "outputs": [],
      "payable": false,
      "stateMutability": "nonpayable",
      "type": "function"
    },
    {
      "inputs": [
        {
          "name": "name",
          "type": "string"
        },
        {
          "name": "symbol",
          "type": "string"
        },
        {
          "name": "rate",
          "type": "uint256"
        },
        {
          "name": "stabletoken_addr",
          "type": "address"
        }
      ],
      "payable": false,
      "stateMutability": "nonpayable",
      "type": "constructor"
    },
    {
      "anonymous": false,
      "inputs": [
        {
          "indexed": false,
          "name": "from",
          "type": "address"
        },
        {
          "indexed": false,
          "name": "ammount",
          "type": "uint256"
        }
      ],
      "name": "Fund",
      "type": "event"
    },
    {
      "anonymous": false,
      "inputs": [
        {
          "indexed": false,
          "name": "to",
          "type": "address"
        },
        {
          "indexed": false,
          "name": "ammount",
          "type": "uint256"
        },
        {
          "indexed": false,
          "name": "ID",
          "type": "uint256"
        }
      ],
      "name": "Issue",
      "type": "event"
    },
    {
      "anonymous": false,
      "inputs": [
        {
          "indexed": false,
          "name": "ID",
          "type": "uint256"
        },
        {
          "indexed": false,
          "name": "to",
          "type": "address"
        },
        {
          "indexed": false,
          "name": "ammount",
          "type": "uint256"
        }
      ],
      "name": "Redeem",
      "type": "event"
    },
    {
      "anonymous": false,
      "inputs": [
        {
          "indexed": false,
          "name": "account",
          "type": "address"
        }
      ],
      "name": "Paused",
      "type": "event"
    },
    {
      "anonymous": false,
      "inputs": [
        {
          "indexed": false,
          "name": "account",
          "type": "address"
        }
      ],
      "name": "Unpaused",
      "type": "event"
    },
    {
      "anonymous": false,
      "inputs": [
        {
          "indexed": true,
          "name": "account",
          "type": "address"
        }
      ],
      "name": "PauserAdded",
      "type": "event"
    },
    {
      "anonymous": false,
      "inputs": [
        {
          "indexed": true,
          "name": "account",
          "type": "address"
        }
      ],
      "name": "PauserRemoved",
      "type": "event"
    },
    {
      "anonymous": false,
      "inputs": [
        {
          "indexed": true,
          "name": "from",
          "type": "address"
        },
        {
          "indexed": true,
          "name": "to",
          "type": "address"
        },
        {
          "indexed": true,
          "name": "tokenId",
          "type": "uint256"
        }
      ],
      "name": "Transfer",
      "type": "event"
    },
    {
      "anonymous": false,
      "inputs": [
        {
          "indexed": true,
          "name": "owner",
          "type": "address"
        },
        {
          "indexed": true,
          "name": "approved",
          "type": "address"
        },
        {
          "indexed": true,
          "name": "tokenId",
          "type": "uint256"
        }
      ],
      "name": "Approval",
      "type": "event"
    },
    {
      "anonymous": false,
      "inputs": [
        {
          "indexed": true,
          "name": "owner",
          "type": "address"
        },
        {
          "indexed": true,
          "name": "operator",
          "type": "address"
        },
        {
          "indexed": false,
          "name": "approved",
          "type": "bool"
        }
      ],
      "name": "ApprovalForAll",
      "type": "event"
    },
    {
      "anonymous": false,
      "inputs": [
        {
          "indexed": true,
          "name": "previousOwner",
          "type": "address"
        },
        {
          "indexed": true,
          "name": "newOwner",
          "type": "address"
        }
      ],
      "name": "OwnershipTransferred",
      "type": "event"
    },
    {
      "constant": false,
      "inputs": [
        {
          "name": "ammount",
          "type": "uint256"
        }
      ],
      "name": "fund",
      "outputs": [],
      "payable": false,
      "stateMutability": "nonpayable",
      "type": "function"
    },
    {
      "constant": false,
      "inputs": [
        {
          "name": "ammount",
          "type": "uint256"
        }
      ],
      "name": "issue",
      "outputs": [
        {
          "name": "",
          "type": "uint256"
        }
      ],
      "payable": false,
      "stateMutability": "nonpayable",
      "type": "function"
    },
    {
      "constant": false,
      "inputs": [
        {
          "name": "ID",
          "type": "uint256"
        }
      ],
      "name": "redeem",
      "outputs": [],
      "payable": false,
      "stateMutability": "nonpayable",
      "type": "function"
    }
  ],
  "bytecode": "0x60806040523480156200001157600080fd5b5060405162003c6b38038062003c6b8339810180604052810190808051820192919060200180518201929190602001805190602001909291908051906020019092919050505083838181336000806101000a81548173ffffffffffffffffffffffffffffffffffffffff021916908373ffffffffffffffffffffffffffffffffffffffff1602179055506000809054906101000a900473ffffffffffffffffffffffffffffffffffffffff1673ffffffffffffffffffffffffffffffffffffffff16600073ffffffffffffffffffffffffffffffffffffffff167f8be0079c531659141344cd1fd0a4f28419497f9722a3daafe3b4186f6b6457e060405160405180910390a3620001546301ffc9a77c01000000000000000000000000000000000000000000000000000000000262000374640100000000026401000000009004565b620001916380ac58cd7c01000000000000000000000000000000000000000000000000000000000262000374640100000000026401000000009004565b620001ce63780e9d637c01000000000000000000000000000000000000000000000000000000000262000374640100000000026401000000009004565b81600a9080519060200190620001e6929190620005f4565b5080600b9080519060200190620001ff929190620005f4565b506200023d635b5e139f7c01000000000000000000000000000000000000000000000000000000000262000374640100000000026401000000009004565b505050506200025b3362000432640100000000026401000000009004565b6000600e60006101000a81548160ff0219169083151502179055506000600a838115156200028557fe5b0614151562000322576040517f08c379a000000000000000000000000000000000000000000000000000000000815260040180806020018281038252602d8152602001807f54686520626f6e75732070657263656e74616765206d757374206265206d756c81526020017f7469706c6573206f662031302e0000000000000000000000000000000000000081525060400191505060405180910390fd5b8160108190555080601260006101000a81548173ffffffffffffffffffffffffffffffffffffffff021916908373ffffffffffffffffffffffffffffffffffffffff16021790555050505050620006a3565b63ffffffff7c010000000000000000000000000000000000000000000000000000000002817bffffffffffffffffffffffffffffffffffffffffffffffffffffffff191614151515620003c657600080fd5b6001806000837bffffffffffffffffffffffffffffffffffffffffffffffffffffffff19167bffffffffffffffffffffffffffffffffffffffffffffffffffffffff1916815260200190815260200160002060006101000a81548160ff02191690831515021790555050565b6200045681600d6200049c6401000000000262002fa6179091906401000000009004565b8073ffffffffffffffffffffffffffffffffffffffff167f6719d08c1888103bea251a4ed56406bd0c3e69723c8a1686e017e7bbe159b6f860405160405180910390a250565b600073ffffffffffffffffffffffffffffffffffffffff168173ffffffffffffffffffffffffffffffffffffffff1614151515620004d957600080fd5b620004f482826200055f640100000000026401000000009004565b1515156200050157600080fd5b60018260000160008373ffffffffffffffffffffffffffffffffffffffff1673ffffffffffffffffffffffffffffffffffffffff16815260200190815260200160002060006101000a81548160ff0219169083151502179055505050565b60008073ffffffffffffffffffffffffffffffffffffffff168273ffffffffffffffffffffffffffffffffffffffff16141515156200059d57600080fd5b8260000160008373ffffffffffffffffffffffffffffffffffffffff1673ffffffffffffffffffffffffffffffffffffffff16815260200190815260200160002060009054906101000a900460ff16905092915050565b828054600181600116156101000203166002900490600052602060002090601f016020900481019282601f106200063757805160ff191683800117855562000668565b8280016001018555821562000668579182015b82811115620006675782518255916020019190600101906200064a565b5b5090506200067791906200067b565b5090565b620006a091905b808211156200069c57600081600090555060010162000682565b5090565b90565b6135b880620006b36000396000f300608060405260043610610175576000357c0100000000000000000000000000000000000000000000000000000000900463ffffffff16806301ffc9a71461017a57806306fdde03146101de578063081812fc1461026e578063095ea7b3146102db57806318160ddd1461032857806323b872dd146103535780632f745c59146103c05780633f4ba83a1461042157806342842e0e1461043857806346fbf68e146104a55780634f6ccce7146105005780635c975abb146105415780636352211e146105705780636ef8d66d146105dd57806370a08231146105f4578063715018a61461064b57806382dc1ec4146106625780638456cb59146106a55780638da5cb5b146106bc5780638f32d59b1461071357806395d89b4114610742578063a22cb465146107d2578063b88d4fde14610821578063c87b56dd146108d4578063ca1d209d1461097a578063cc872b66146109a7578063db006a75146109e8578063e985e9c514610a15578063f2fde38b14610a90575b600080fd5b34801561018657600080fd5b506101c460048036038101908080357bffffffffffffffffffffffffffffffffffffffffffffffffffffffff19169060200190929190505050610ad3565b604051808215151515815260200191505060405180910390f35b3480156101ea57600080fd5b506101f3610b3b565b6040518080602001828103825283818151815260200191508051906020019080838360005b83811015610233578082015181840152602081019050610218565b50505050905090810190601f1680156102605780820380516001836020036101000a031916815260200191505b509250505060405180910390f35b34801561027a57600080fd5b5061029960048036038101908080359060200190929190505050610bdd565b604051808273ffffffffffffffffffffffffffffffffffffffff1673ffffffffffffffffffffffffffffffffffffffff16815260200191505060405180910390f35b3480156102e757600080fd5b50610326600480360381019080803573ffffffffffffffffffffffffffffffffffffffff16906020019092919080359060200190929190505050610c2e565b005b34801561033457600080fd5b5061033d610c58565b6040518082815260200191505060405180910390f35b34801561035f57600080fd5b506103be600480360381019080803573ffffffffffffffffffffffffffffffffffffffff169060200190929190803573ffffffffffffffffffffffffffffffffffffffff16906020019092919080359060200190929190505050610c65565b005b3480156103cc57600080fd5b5061040b600480360381019080803573ffffffffffffffffffffffffffffffffffffffff16906020019092919080359060200190929190505050610c91565b6040518082815260200191505060405180910390f35b34801561042d57600080fd5b50610436610d08565b005b34801561044457600080fd5b506104a3600480360381019080803573ffffffffffffffffffffffffffffffffffffffff169060200190929190803573ffffffffffffffffffffffffffffffffffffffff16906020019092919080359060200190929190505050610db7565b005b3480156104b157600080fd5b506104e6600480360381019080803573ffffffffffffffffffffffffffffffffffffffff169060200190929190505050610dd8565b604051808215151515815260200191505060405180910390f35b34801561050c57600080fd5b5061052b60048036038101908080359060200190929190505050610df5565b6040518082815260200191505060405180910390f35b34801561054d57600080fd5b50610556610e2d565b604051808215151515815260200191505060405180910390f35b34801561057c57600080fd5b5061059b60048036038101908080359060200190929190505050610e44565b604051808273ffffffffffffffffffffffffffffffffffffffff1673ffffffffffffffffffffffffffffffffffffffff16815260200191505060405180910390f35b3480156105e957600080fd5b506105f2610ec2565b005b34801561060057600080fd5b50610635600480360381019080803573ffffffffffffffffffffffffffffffffffffffff169060200190929190505050610ecd565b6040518082815260200191505060405180910390f35b34801561065757600080fd5b50610660610f51565b005b34801561066e57600080fd5b506106a3600480360381019080803573ffffffffffffffffffffffffffffffffffffffff169060200190929190505050611023565b005b3480156106b157600080fd5b506106ba611043565b005b3480156106c857600080fd5b506106d16110f3565b604051808273ffffffffffffffffffffffffffffffffffffffff1673ffffffffffffffffffffffffffffffffffffffff16815260200191505060405180910390f35b34801561071f57600080fd5b5061072861111c565b604051808215151515815260200191505060405180910390f35b34801561074e57600080fd5b50610757611173565b6040518080602001828103825283818151815260200191508051906020019080838360005b8381101561079757808201518184015260208101905061077c565b50505050905090810190601f1680156107c45780820380516001836020036101000a031916815260200191505b509250505060405180910390f35b3480156107de57600080fd5b5061081f600480360381019080803573ffffffffffffffffffffffffffffffffffffffff169060200190929190803515159060200190929190505050611215565b005b34801561082d57600080fd5b506108d2600480360381019080803573ffffffffffffffffffffffffffffffffffffffff169060200190929190803573ffffffffffffffffffffffffffffffffffffffff16906020019092919080359060200190929190803590602001908201803590602001908080601f016020809104026020016040519081016040528093929190818152602001838380828437820191505050505050919291929050505061123f565b005b3480156108e057600080fd5b506108ff60048036038101908080359060200190929190505050611267565b6040518080602001828103825283818151815260200191508051906020019080838360005b8381101561093f578082015181840152602081019050610924565b50505050905090810190601f16801561096c5780820380516001836020036101000a031916815260200191505b509250505060405180910390f35b34801561098657600080fd5b506109a560048036038101908080359060200190929190505050611330565b005b3480156109b357600080fd5b506109d2600480360381019080803590602001909291905050506116af565b6040518082815260200191505060405180910390f35b3480156109f457600080fd5b50610a1360048036038101908080359060200190929190505050611d7b565b005b348015610a2157600080fd5b50610a76600480360381019080803573ffffffffffffffffffffffffffffffffffffffff169060200190929190803573ffffffffffffffffffffffffffffffffffffffff169060200190929190505050612072565b604051808215151515815260200191505060405180910390f35b348015610a9c57600080fd5b50610ad1600480360381019080803573ffffffffffffffffffffffffffffffffffffffff169060200190929190505050612106565b005b600060016000837bffffffffffffffffffffffffffffffffffffffffffffffffffffffff19167bffffffffffffffffffffffffffffffffffffffffffffffffffffffff1916815260200190815260200160002060009054906101000a900460ff169050919050565b6060600a8054600181600116156101000203166002900480601f016020809104026020016040519081016040528092919081815260200182805460018160011615610100020316600290048015610bd35780601f10610ba857610100808354040283529160200191610bd3565b820191906000526020600020905b815481529060010190602001808311610bb657829003601f168201915b5050505050905090565b6000610be882612125565b1515610bf357600080fd5b6003600083815260200190815260200160002060009054906101000a900473ffffffffffffffffffffffffffffffffffffffff169050919050565b600e60009054906101000a900460ff16151515610c4a57600080fd5b610c548282612197565b5050565b6000600880549050905090565b600e60009054906101000a900460ff16151515610c8157600080fd5b610c8c8383836122dc565b505050565b6000610c9c83610ecd565b82101515610ca957600080fd5b600660008473ffffffffffffffffffffffffffffffffffffffff1673ffffffffffffffffffffffffffffffffffffffff16815260200190815260200160002082815481101515610cf557fe5b9060005260206000200154905092915050565b610d1133610dd8565b1515610d1c57600080fd5b600e60009054906101000a900460ff161515610d3757600080fd5b6000600e60006101000a81548160ff0219169083151502179055507f5db9ee0a495bf2e6ff9c91a7834c1ba4fdd244a5e8aa4e537bd38aeae4b073aa33604051808273ffffffffffffffffffffffffffffffffffffffff1673ffffffffffffffffffffffffffffffffffffffff16815260200191505060405180910390a1565b610dd3838383602060405190810160405280600081525061123f565b505050565b6000610dee82600d6123ab90919063ffffffff16565b9050919050565b6000610dff610c58565b82101515610e0c57600080fd5b600882815481101515610e1b57fe5b90600052602060002001549050919050565b6000600e60009054906101000a900460ff16905090565b6000806002600084815260200190815260200160002060009054906101000a900473ffffffffffffffffffffffffffffffffffffffff169050600073ffffffffffffffffffffffffffffffffffffffff168173ffffffffffffffffffffffffffffffffffffffff1614151515610eb957600080fd5b80915050919050565b610ecb3361243f565b565b60008073ffffffffffffffffffffffffffffffffffffffff168273ffffffffffffffffffffffffffffffffffffffff1614151515610f0a57600080fd5b600460008373ffffffffffffffffffffffffffffffffffffffff1673ffffffffffffffffffffffffffffffffffffffff168152602001908152602001600020549050919050565b610f5961111c565b1515610f6457600080fd5b600073ffffffffffffffffffffffffffffffffffffffff166000809054906101000a900473ffffffffffffffffffffffffffffffffffffffff1673ffffffffffffffffffffffffffffffffffffffff167f8be0079c531659141344cd1fd0a4f28419497f9722a3daafe3b4186f6b6457e060405160405180910390a360008060006101000a81548173ffffffffffffffffffffffffffffffffffffffff021916908373ffffffffffffffffffffffffffffffffffffffff160217905550565b61102c33610dd8565b151561103757600080fd5b61104081612499565b50565b61104c33610dd8565b151561105757600080fd5b600e60009054906101000a900460ff1615151561107357600080fd5b6001600e60006101000a81548160ff0219169083151502179055507f62e78cea01bee320cd4e420270b5ea74000d11b0c9f74754ebdbfc544b05a25833604051808273ffffffffffffffffffffffffffffffffffffffff1673ffffffffffffffffffffffffffffffffffffffff16815260200191505060405180910390a1565b60008060009054906101000a900473ffffffffffffffffffffffffffffffffffffffff16905090565b60008060009054906101000a900473ffffffffffffffffffffffffffffffffffffffff1673ffffffffffffffffffffffffffffffffffffffff163373ffffffffffffffffffffffffffffffffffffffff1614905090565b6060600b8054600181600116156101000203166002900480601f01602080910402602001604051908101604052809291908181526020018280546001816001161561010002031660029004801561120b5780601f106111e05761010080835404028352916020019161120b565b820191906000526020600020905b8154815290600101906020018083116111ee57829003601f168201915b5050505050905090565b600e60009054906101000a900460ff1615151561123157600080fd5b61123b82826124f3565b5050565b61124a848484610c65565b6112568484848461262f565b151561126157600080fd5b50505050565b606061127282612125565b151561127d57600080fd5b600c60008381526020019081526020016000208054600181600116156101000203166002900480601f0160208091040260200160405190810160405280929190818152602001828054600181600116156101000203166002900480156113245780601f106112f957610100808354040283529160200191611324565b820191906000526020600020905b81548152906001019060200180831161130757829003601f168201915b50505050509050919050565b600061133a61111c565b151561134557600080fd5b600e60009054906101000a900460ff1615151561136157600080fd5b601260009054906101000a900473ffffffffffffffffffffffffffffffffffffffff1690508073ffffffffffffffffffffffffffffffffffffffff1663dd62ed3e33306040518363ffffffff167c0100000000000000000000000000000000000000000000000000000000028152600401808373ffffffffffffffffffffffffffffffffffffffff1673ffffffffffffffffffffffffffffffffffffffff1681526020018273ffffffffffffffffffffffffffffffffffffffff1673ffffffffffffffffffffffffffffffffffffffff16815260200192505050602060405180830381600087803b15801561145557600080fd5b505af1158015611469573d6000803e3d6000fd5b505050506040513d602081101561147f57600080fd5b8101908080519060200190929190505050821115151561152d576040517f08c379a00000000000000000000000000000000000000000000000000000000081526004018080602001828103825260218152602001807f596f7520646964206e6f7420617070726f7665207468697320616d6d6f756e7481526020017f2e0000000000000000000000000000000000000000000000000000000000000081525060400191505060405180910390fd5b8073ffffffffffffffffffffffffffffffffffffffff166323b872dd3330856040518463ffffffff167c0100000000000000000000000000000000000000000000000000000000028152600401808473ffffffffffffffffffffffffffffffffffffffff1673ffffffffffffffffffffffffffffffffffffffff1681526020018373ffffffffffffffffffffffffffffffffffffffff1673ffffffffffffffffffffffffffffffffffffffff1681526020018281526020019350505050602060405180830381600087803b15801561160457600080fd5b505af1158015611618573d6000803e3d6000fd5b505050506040513d602081101561162e57600080fd5b8101908080519060200190929190505050507fda8220a878ff7a89474ccffdaa31ea1ed1ffbb0207d5051afccc4fbaf81f9bcd3383604051808373ffffffffffffffffffffffffffffffffffffffff1673ffffffffffffffffffffffffffffffffffffffff1681526020018281526020019250505060405180910390a15050565b600080600080600080600e60009054906101000a900460ff161515156116d457600080fd5b6000871415151561174d576040517f08c379a00000000000000000000000000000000000000000000000000000000081526004018080602001828103825260158152602001807f506c6561736520626520726561736f6e61626c652e000000000000000000000081525060200191505060405180910390fd5b6000600a8881151561175b57fe5b061415156117d1576040517f08c379a00000000000000000000000000000000000000000000000000000000081526004018080602001828103825260208152602001807f596f75206d7573742062757920696e206d756c7469706c6573206f662031302e81525060200191505060405180910390fd5b601260009054906101000a900473ffffffffffffffffffffffffffffffffffffffff169450611800600f612851565b93508473ffffffffffffffffffffffffffffffffffffffff166370a08231306040518263ffffffff167c0100000000000000000000000000000000000000000000000000000000028152600401808273ffffffffffffffffffffffffffffffffffffffff1673ffffffffffffffffffffffffffffffffffffffff168152602001915050602060405180830381600087803b15801561189d57600080fd5b505af11580156118b1573d6000803e3d6000fd5b505050506040513d60208110156118c757600080fd5b810190808051906020019092919050505092506118ef6011548461287290919063ffffffff16565b9150611919606461190b6010548a61289390919063ffffffff16565b6128d190919063ffffffff16565b90508181111515156119df576040517f08c379a00000000000000000000000000000000000000000000000000000000081526004018080602001828103825260508152602001807f57652063616e6e6f74206973737565206120676966742063657274696669636181526020017f746520666f7220746869732076616c756520617320697420776f756c6420657881526020017f63656564206f7572206275646765742e0000000000000000000000000000000081525060600191505060405180910390fd5b8473ffffffffffffffffffffffffffffffffffffffff1663dd62ed3e33306040518363ffffffff167c0100000000000000000000000000000000000000000000000000000000028152600401808373ffffffffffffffffffffffffffffffffffffffff1673ffffffffffffffffffffffffffffffffffffffff1681526020018273ffffffffffffffffffffffffffffffffffffffff1673ffffffffffffffffffffffffffffffffffffffff16815260200192505050602060405180830381600087803b158015611aae57600080fd5b505af1158015611ac2573d6000803e3d6000fd5b505050506040513d6020811015611ad857600080fd5b81019080805190602001909291905050508711151515611b86576040517f08c379a00000000000000000000000000000000000000000000000000000000081526004018080602001828103825260218152602001807f596f7520646964206e6f7420617070726f7665207468697320616d6d6f756e7481526020017f2e0000000000000000000000000000000000000000000000000000000000000081525060400191505060405180910390fd5b611b9981886128fb90919063ffffffff16565b6013600086815260200190815260200160002081905550611bd860136000868152602001908152602001600020546011546128fb90919063ffffffff16565b601181905550611be8338561291c565b8473ffffffffffffffffffffffffffffffffffffffff166323b872dd33308a6040518463ffffffff167c0100000000000000000000000000000000000000000000000000000000028152600401808473ffffffffffffffffffffffffffffffffffffffff1673ffffffffffffffffffffffffffffffffffffffff1681526020018373ffffffffffffffffffffffffffffffffffffffff1673ffffffffffffffffffffffffffffffffffffffff1681526020018281526020019350505050602060405180830381600087803b158015611cbf57600080fd5b505af1158015611cd3573d6000803e3d6000fd5b505050506040513d6020811015611ce957600080fd5b8101908080519060200190929190505050507f7bbff60f84adf6a9b6881c0bae9f63e6f324d55f6ddeb2cf3213414a2f058d4a338886604051808473ffffffffffffffffffffffffffffffffffffffff1673ffffffffffffffffffffffffffffffffffffffff168152602001838152602001828152602001935050505060405180910390a18395505050505050919050565b600080600e60009054906101000a900460ff16151515611d9a57600080fd5b611da383612125565b1515611e17576040517f08c379a00000000000000000000000000000000000000000000000000000000081526004018080602001828103825260208152602001807f4769667420636572746966696361746520646f6573206e6f742065786973742e81525060200191505060405180910390fd5b611e213384612973565b1515611ebb576040517f08c379a000000000000000000000000000000000000000000000000000000000815260040180806020018281038252602f8152602001807f4e6f7420617574686f72697a656420746f2072656465656d207468697320676981526020017f66742063657274696669636174652e000000000000000000000000000000000081525060400191505060405180910390fd5b60136000848152602001908152602001600020549150611ee68260115461287290919063ffffffff16565b601181905550611ef63384612a08565b601260009054906101000a900473ffffffffffffffffffffffffffffffffffffffff1690508073ffffffffffffffffffffffffffffffffffffffff1663a9059cbb33846040518363ffffffff167c0100000000000000000000000000000000000000000000000000000000028152600401808373ffffffffffffffffffffffffffffffffffffffff1673ffffffffffffffffffffffffffffffffffffffff16815260200182815260200192505050602060405180830381600087803b158015611fbe57600080fd5b505af1158015611fd2573d6000803e3d6000fd5b505050506040513d6020811015611fe857600080fd5b8101908080519060200190929190505050507f1069ba7d3dd3d969eada9a014b1e1a8e2ab1ef7f38989db8ce98e698ac844f65833384604051808481526020018373ffffffffffffffffffffffffffffffffffffffff1673ffffffffffffffffffffffffffffffffffffffff168152602001828152602001935050505060405180910390a1505050565b6000600560008473ffffffffffffffffffffffffffffffffffffffff1673ffffffffffffffffffffffffffffffffffffffff16815260200190815260200160002060008373ffffffffffffffffffffffffffffffffffffffff1673ffffffffffffffffffffffffffffffffffffffff16815260200190815260200160002060009054906101000a900460ff16905092915050565b61210e61111c565b151561211957600080fd5b61212281612a67565b50565b6000806002600084815260200190815260200160002060009054906101000a900473ffffffffffffffffffffffffffffffffffffffff169050600073ffffffffffffffffffffffffffffffffffffffff168173ffffffffffffffffffffffffffffffffffffffff161415915050919050565b60006121a282610e44565b90508073ffffffffffffffffffffffffffffffffffffffff168373ffffffffffffffffffffffffffffffffffffffff16141515156121df57600080fd5b8073ffffffffffffffffffffffffffffffffffffffff163373ffffffffffffffffffffffffffffffffffffffff16148061221f575061221e8133612072565b5b151561222a57600080fd5b826003600084815260200190815260200160002060006101000a81548173ffffffffffffffffffffffffffffffffffffffff021916908373ffffffffffffffffffffffffffffffffffffffff160217905550818373ffffffffffffffffffffffffffffffffffffffff168273ffffffffffffffffffffffffffffffffffffffff167f8c5be1e5ebec7d5bd14f71427d1e84f3dd0314c0f7b2291e5b200ac8c7c3b92560405160405180910390a4505050565b6122e63382612973565b15156122f157600080fd5b600073ffffffffffffffffffffffffffffffffffffffff168273ffffffffffffffffffffffffffffffffffffffff161415151561232d57600080fd5b6123378382612b61565b6123418382612c64565b61234b8282612e20565b808273ffffffffffffffffffffffffffffffffffffffff168473ffffffffffffffffffffffffffffffffffffffff167fddf252ad1be2c89b69c2b068fc378daa952ba7f163c4a11628f55a4df523b3ef60405160405180910390a4505050565b60008073ffffffffffffffffffffffffffffffffffffffff168273ffffffffffffffffffffffffffffffffffffffff16141515156123e857600080fd5b8260000160008373ffffffffffffffffffffffffffffffffffffffff1673ffffffffffffffffffffffffffffffffffffffff16815260200190815260200160002060009054906101000a900460ff16905092915050565b61245381600d612ef790919063ffffffff16565b8073ffffffffffffffffffffffffffffffffffffffff167fcd265ebaf09df2871cc7bd4133404a235ba12eff2041bb89d9c714a2621c7c7e60405160405180910390a250565b6124ad81600d612fa690919063ffffffff16565b8073ffffffffffffffffffffffffffffffffffffffff167f6719d08c1888103bea251a4ed56406bd0c3e69723c8a1686e017e7bbe159b6f860405160405180910390a250565b3373ffffffffffffffffffffffffffffffffffffffff168273ffffffffffffffffffffffffffffffffffffffff161415151561252e57600080fd5b80600560003373ffffffffffffffffffffffffffffffffffffffff1673ffffffffffffffffffffffffffffffffffffffff16815260200190815260200160002060008473ffffffffffffffffffffffffffffffffffffffff1673ffffffffffffffffffffffffffffffffffffffff16815260200190815260200160002060006101000a81548160ff0219169083151502179055508173ffffffffffffffffffffffffffffffffffffffff163373ffffffffffffffffffffffffffffffffffffffff167f17307eab39ab6107e8899845ad3d59bd9653f200f220920489ca2b5937696c3183604051808215151515815260200191505060405180910390a35050565b6000806126518573ffffffffffffffffffffffffffffffffffffffff16613056565b15156126605760019150612848565b8473ffffffffffffffffffffffffffffffffffffffff1663150b7a02338887876040518563ffffffff167c0100000000000000000000000000000000000000000000000000000000028152600401808573ffffffffffffffffffffffffffffffffffffffff1673ffffffffffffffffffffffffffffffffffffffff1681526020018473ffffffffffffffffffffffffffffffffffffffff1673ffffffffffffffffffffffffffffffffffffffff16815260200183815260200180602001828103825283818151815260200191508051906020019080838360005b8381101561275557808201518184015260208101905061273a565b50505050905090810190601f1680156127825780820380516001836020036101000a031916815260200191505b5095505050505050602060405180830381600087803b1580156127a457600080fd5b505af11580156127b8573d6000803e3d6000fd5b505050506040513d60208110156127ce57600080fd5b8101908080519060200190929190505050905063150b7a027c0100000000000000000000000000000000000000000000000000000000027bffffffffffffffffffffffffffffffffffffffffffffffffffffffff1916817bffffffffffffffffffffffffffffffffffffffffffffffffffffffff19161491505b50949350505050565b60006001826000016000828254019250508190555081600001549050919050565b60008083831115151561288457600080fd5b82840390508091505092915050565b60008060008414156128a857600091506128ca565b82840290508284828115156128b957fe5b041415156128c657600080fd5b8091505b5092915050565b6000806000831115156128e357600080fd5b82848115156128ee57fe5b0490508091505092915050565b600080828401905083811015151561291257600080fd5b8091505092915050565b6129268282613069565b600880549050600960008381526020019081526020016000208190555060088190806001815401808255809150509060018203906000526020600020016000909192909190915055505050565b60008061297f83610e44565b90508073ffffffffffffffffffffffffffffffffffffffff168473ffffffffffffffffffffffffffffffffffffffff1614806129ee57508373ffffffffffffffffffffffffffffffffffffffff166129d684610bdd565b73ffffffffffffffffffffffffffffffffffffffff16145b806129ff57506129fe8185612072565b5b91505092915050565b612a12828261310f565b6000600c6000838152602001908152602001600020805460018160011615610100020316600290049050141515612a6357600c60008281526020019081526020016000206000612a6291906134f3565b5b5050565b600073ffffffffffffffffffffffffffffffffffffffff168173ffffffffffffffffffffffffffffffffffffffff1614151515612aa357600080fd5b8073ffffffffffffffffffffffffffffffffffffffff166000809054906101000a900473ffffffffffffffffffffffffffffffffffffffff1673ffffffffffffffffffffffffffffffffffffffff167f8be0079c531659141344cd1fd0a4f28419497f9722a3daafe3b4186f6b6457e060405160405180910390a3806000806101000a81548173ffffffffffffffffffffffffffffffffffffffff021916908373ffffffffffffffffffffffffffffffffffffffff16021790555050565b8173ffffffffffffffffffffffffffffffffffffffff16612b8182610e44565b73ffffffffffffffffffffffffffffffffffffffff16141515612ba357600080fd5b600073ffffffffffffffffffffffffffffffffffffffff166003600083815260200190815260200160002060009054906101000a900473ffffffffffffffffffffffffffffffffffffffff1673ffffffffffffffffffffffffffffffffffffffff16141515612c605760006003600083815260200190815260200160002060006101000a81548173ffffffffffffffffffffffffffffffffffffffff021916908373ffffffffffffffffffffffffffffffffffffffff1602179055505b5050565b6000806000612c7385856131f6565b60076000858152602001908152602001600020549250612cdf6001600660008873ffffffffffffffffffffffffffffffffffffffff1673ffffffffffffffffffffffffffffffffffffffff1681526020019081526020016000208054905061287290919063ffffffff16565b9150600660008673ffffffffffffffffffffffffffffffffffffffff1673ffffffffffffffffffffffffffffffffffffffff16815260200190815260200160002082815481101515612d2d57fe5b9060005260206000200154905080600660008773ffffffffffffffffffffffffffffffffffffffff1673ffffffffffffffffffffffffffffffffffffffff16815260200190815260200160002084815481101515612d8757fe5b9060005260206000200181905550600660008673ffffffffffffffffffffffffffffffffffffffff1673ffffffffffffffffffffffffffffffffffffffff168152602001908152602001600020805480919060019003612de7919061353b565b50600060076000868152602001908152602001600020819055508260076000838152602001908152602001600020819055505050505050565b6000612e2c8383613325565b600660008473ffffffffffffffffffffffffffffffffffffffff1673ffffffffffffffffffffffffffffffffffffffff168152602001908152602001600020805490509050600660008473ffffffffffffffffffffffffffffffffffffffff1673ffffffffffffffffffffffffffffffffffffffff168152602001908152602001600020829080600181540180825580915050906001820390600052602060002001600090919290919091505550806007600084815260200190815260200160002081905550505050565b600073ffffffffffffffffffffffffffffffffffffffff168173ffffffffffffffffffffffffffffffffffffffff1614151515612f3357600080fd5b612f3d82826123ab565b1515612f4857600080fd5b60008260000160008373ffffffffffffffffffffffffffffffffffffffff1673ffffffffffffffffffffffffffffffffffffffff16815260200190815260200160002060006101000a81548160ff0219169083151502179055505050565b600073ffffffffffffffffffffffffffffffffffffffff168173ffffffffffffffffffffffffffffffffffffffff1614151515612fe257600080fd5b612fec82826123ab565b151515612ff857600080fd5b60018260000160008373ffffffffffffffffffffffffffffffffffffffff1673ffffffffffffffffffffffffffffffffffffffff16815260200190815260200160002060006101000a81548160ff0219169083151502179055505050565b600080823b905060008111915050919050565b600073ffffffffffffffffffffffffffffffffffffffff168273ffffffffffffffffffffffffffffffffffffffff16141515156130a557600080fd5b6130af8282612e20565b808273ffffffffffffffffffffffffffffffffffffffff16600073ffffffffffffffffffffffffffffffffffffffff167fddf252ad1be2c89b69c2b068fc378daa952ba7f163c4a11628f55a4df523b3ef60405160405180910390a45050565b600080600061311e858561347f565b6009600085815260200190815260200160002054925061314d600160088054905061287290919063ffffffff16565b915060088281548110151561315e57fe5b906000526020600020015490508060088481548110151561317b57fe5b9060005260206000200181905550600060088381548110151561319a57fe5b906000526020600020018190555060088054809190600190036131bd919061353b565b50600060096000868152602001908152602001600020819055508260096000838152602001908152602001600020819055505050505050565b8173ffffffffffffffffffffffffffffffffffffffff1661321682610e44565b73ffffffffffffffffffffffffffffffffffffffff1614151561323857600080fd5b61328b6001600460008573ffffffffffffffffffffffffffffffffffffffff1673ffffffffffffffffffffffffffffffffffffffff1681526020019081526020016000205461287290919063ffffffff16565b600460008473ffffffffffffffffffffffffffffffffffffffff1673ffffffffffffffffffffffffffffffffffffffff1681526020019081526020016000208190555060006002600083815260200190815260200160002060006101000a81548173ffffffffffffffffffffffffffffffffffffffff021916908373ffffffffffffffffffffffffffffffffffffffff1602179055505050565b600073ffffffffffffffffffffffffffffffffffffffff166002600083815260200190815260200160002060009054906101000a900473ffffffffffffffffffffffffffffffffffffffff1673ffffffffffffffffffffffffffffffffffffffff1614151561339357600080fd5b816002600083815260200190815260200160002060006101000a81548173ffffffffffffffffffffffffffffffffffffffff021916908373ffffffffffffffffffffffffffffffffffffffff1602179055506134386001600460008573ffffffffffffffffffffffffffffffffffffffff1673ffffffffffffffffffffffffffffffffffffffff168152602001908152602001600020546128fb90919063ffffffff16565b600460008473ffffffffffffffffffffffffffffffffffffffff1673ffffffffffffffffffffffffffffffffffffffff168152602001908152602001600020819055505050565b6134898282612b61565b6134938282612c64565b80600073ffffffffffffffffffffffffffffffffffffffff168373ffffffffffffffffffffffffffffffffffffffff167fddf252ad1be2c89b69c2b068fc378daa952ba7f163c4a11628f55a4df523b3ef60405160405180910390a45050565b50805460018160011615610100020316600290046000825580601f106135195750613538565b601f0160209004906000526020600020908101906135379190613567565b5b50565b815481835581811115613562578183600052602060002091820191016135619190613567565b5b505050565b61358991905b8082111561358557600081600090555060010161356d565b5090565b905600a165627a7a72305820fb50cc7e6b2d3d68ae5cc7ac5ed8c78b2dc2151d9aa157c1841c85f758c216910029",
  "source": "pragma solidity ^0.4.24;\n\nimport 'openzeppelin-solidity/contracts/ownership/Ownable.sol';\nimport 'openzeppelin-solidity/contracts/token/ERC721/ERC721Full.sol';\nimport 'openzeppelin-solidity/contracts/token/ERC721/ERC721Pausable.sol';\nimport 'openzeppelin-solidity/contracts/drafts/Counter.sol';\nimport './StableToken.sol';\n\ncontract GiftCertificate is Ownable, ERC721Full, ERC721Pausable {\n  using Counter for Counter.Counter;\n  Counter.Counter private tokenId;\n  uint256 _rate;\n  uint256 _reserved;\n  address _stabletoken_addr;\n  mapping (uint256 => uint256 ) _values;\n\n  event Fund(\n    address from,\n    uint256 ammount\n  );\n  event Issue(\n    address to,\n    uint256 ammount,\n    uint256 ID\n  );\n  event Redeem(\n    uint256 ID,\n    address to,\n    uint256 ammount\n  );\n\n  constructor( string name, string symbol, uint256 rate, address stabletoken_addr) ERC721Full(name, symbol) public {\n    require(rate % 10 == 0, 'The bonus percentage must be multiples of 10.');\n    _rate = rate;\n    _stabletoken_addr = stabletoken_addr;\n  }\n  /*\n  *@dev function to fund the contract for promotion/discount.\n  * requires the ERC20 to be approved for this contract at least for the ammount requested\n  * @param ammount the user supplied ammount of ERC20 tokens, we only accept multiples of 50.\n  */\n  function fund(uint256 ammount) onlyOwner public whenNotPaused {\n    StableToken st = StableToken(_stabletoken_addr);\n    require(ammount <= st.allowance(msg.sender, this), \"You did not approve this ammount.\");\n    st.transferFrom(msg.sender, address(this), ammount);\n    emit Fund(msg.sender, ammount);\n  }\n\n  /*\n  *@dev function to issue a gift certificate.\n  * requires the ERC20 to be approved for this contract at least for the ammount requested\n  * @param ammount the user supplied ammount of ERC20 tokens, we only accept multiples of 50.\n  */\n  function issue(uint256 ammount) public whenNotPaused returns (uint256){\n    require(ammount != 0, 'Please be reasonable.');\n    require(ammount % 10 == 0, 'You must buy in multiples of 10.');\n    StableToken st = StableToken(_stabletoken_addr);\n    uint256 ID = tokenId.next();\n    uint256 balance = st.balanceOf(this);\n    uint256 available = balance.sub(_reserved);\n    //as both ammount and _rate are multiples of 10 this should always result in an int.\n    uint256 bonus = ammount.mul(_rate).div(100);\n    require(bonus <= available, \"We cannot issue a gift certificate for this value as it would exceed our budget.\");\n    require(ammount <= st.allowance(msg.sender, this), \"You did not approve this ammount.\");\n    _values[ID] = ammount.add(bonus);\n    _reserved = _reserved.add(_values[ID]);\n//    assert(_reserved <= st.balanceOf(this));\n    super._mint(msg.sender, ID);\n    //TODO make it safe for when the approve was not done or balanceOf not suficient.\n    //What happens in such a case, would this revert ? I guess it depends on the ERC20 implementation ?\n    st.transferFrom(msg.sender, address(this), ammount);\n    emit Issue(msg.sender, ammount, ID);\n    return ID;\n  }\n\n  /*\n  *@dev function to redeem a gift certificate.\n  * an approved shop can redeem the certificate for the total ammount of ERC20 tokens\n  *TODO  add a modifier mechanism to only allow a list of shop(adresses) to redeem the certificates\n  */\n  function redeem(uint256 ID) public whenNotPaused {\n    require(super._exists(ID), \"Gift certificate does not exist.\");\n    require(super._isApprovedOrOwner(msg.sender, ID), \"Not authorized to redeem this gift certificate.\");\n    uint256 value = _values[ID];\n    _reserved = _reserved.sub(value);\n    super._burn(msg.sender, ID);\n    StableToken st = StableToken(_stabletoken_addr);\n    st.transfer(msg.sender, value);\n    emit Redeem( ID,  msg.sender, value);\n  }\n\n}\n",
  "sourcePath": "/home/coninxd/Documents/final-project-dirkconinx/contracts/GiftCertificate.sol",
  "compiler": {
    "name": "solc",
    "version": "0.4.25+commit.59dbf8f1.Emscripten.clang"
  },
  "schemaVersion": "2.0.2",
  "updatedAt": "2018-12-26T18:50:39.714Z"
}